:02000002D0002C
:1040000000400D00D4750D00000006000C000501F5
:084010000401BD0B00000000DB
:04401800AC6B0D0080
:10401C0009480A49884208B505D0094A824202D0AB
:10402C00121A02F0D9FC0748074A0021121A02F0B2
:10403C00E1FC014808BD00BF50E5032044750D00AC
:10404C00B8E50320B8E50320F0E7032070B5074E70
:10405C00074C01F0BBFCA41BA4080025A54200D111
:10406C0070BD56F8043B98470135F7E714750D0001
:10407C0038750D0000F05EBC08B500F07DFDBDE8A4
:10408C00084001F065BC01F0D7B901F0D5B901F0D9
:10409C00DBB9000008B5034A00210C2001F020F91F
:1040AC00FEE700BF3D500D000078B0FA80F04009EB
:1040BC007047012303707047704710B510210446F8
:1040CC0002F05DFB204610BD37B504460846019151
:1040DC0002F0C6FC6368A268451CE818904208D838
:1040EC00206801992A46184402F076FC606828443E
:1040FC00606003B030BD000038B584690A4B0360C2
:10410C0005467CB16368013B63605BB9236820465C
:10411C009B689847A368013BA3601BB923682046A2
:10412C00DB689847284638BD60720D000EB403B5A5
:10413C0003AB002153F8042B019301F060FB02B098
:10414C005DF804EB03B0704773B50446084622795A
:10415C00A36832B1A3B90B4902B0BDE8704001F0BD
:10416C0013BB094A267B094D0949647B012E18BFF4
:10417C002946CDE900140749FFF7D8FF02B070BDFE
:10418C00054AEFE7D16B0D00C86B0D00CD6B0D0030
:10419C00C96B0D00E76B0D00C06B0D000EB403B5C1
:1041AC0003AB012153F8042B019301F028FB02B05F
:1041BC005DF804EB03B0704708B500F041FF034B0A
:1041CC001860BDE8084001F027B900BFD4E7032010
:1041DC0003682BB14268934202D2184602F0E6BB48
:1041EC000020704738B50568044645B143689D42C8
:1041FC0005D2284602F034FC0130054425602046E7
:10420C0038BD000038B504460B46D0E901012568DD
:10421C00044A091A284401F01FF963680130034469
:10422C00636038BD046C0D0038B504460B46D0E90C
:10423C0001012568044A091A284401F00DF9636844
:10424C0001300344636038BD076C0D0008B50023D2
:10425C004377006801F0CCFFBDE8084000F072BE67
:10426C002DE9F04301EB02098FB04945CDE9051961
:10427C0080460D46164680F0928005A80F88FFF701
:10428C00B1FF0368994540F28A8005A8FFF7A0FFAB
:10429C0047F276239F42C4B200F0A98027D847F298
:1042AC0061239F427ED047F264239F4242D046F660
:1042BC0070539F4228D1634E634FDFF8A081059B5A
:1042CC0099456CD905A8FFF783FFC4B205A8FFF781
:1042DC0089FF059D3146284602F0B8FB0146E0B93E
:1042EC00204602F08DF905A8FFF77CFFE7E747F2BF
:1042FC0064739F423FD047F276739F4200F08780F1
:10430C0047F261739F425FD00023CDE90133022253
:10431C000092B8F81A20194629E03946284602F0CE
:10432C0095FB28B14146284602F090FB0028DAD1D3
:10433C000121D5E70AAB4549079307A810230025AF
:10434C00CDE90853FFF7C0FE07A82146FFF75AFF37
:10435C00204602F07FF9014607A8FFF765FF089B8E
:10436C00CDE90155013B0093079B2A461421404699
:10437C0000F018FB13E005A8FFF734FF036899451C
:10438C000DD9A4B20121204602F03AF905A8FFF795
:10439C001FFF011E18BF0121204602F042F90FB089
:1043AC00BDE8F0830AAB079307A810232849002522
:1043BC00CDE90853FFF788FE07A82146FFF722FF37
:1043CC00204602F05AF9C6E705A8FFF70BFF036871
:1043DC009945E4D9A4B20121204602F011F905A8AF
:1043EC00FFF7F6FE0146204602F05EF9D7E72046BD
:1043FC008DF8284000F0A8FD03460AA823B1154A01
:10440C00934201D09847CAE700F09AFDC7E705A888
:10441C00FFF7E8FE059B8DF81C405D1B751B2046C5
:10442C00CDE90A350C9500F099FD03460AA907A8B9
:10443C0023B1094A934201D09847B0E700F081FDBF
:10444C00ADE700BF0B6C0D000E6C0D00166C0D0073
:10445C00196C0D004D4F0D004F4F0D00126C0D00DF
:10446C002DE9F0418CB004AF044605220068391DDB
:10447C0001F00BFAB8B3052804D000202037BD4654
:10448C00BDE8F081B7F80520130A43EA0223B7F818
:10449C000720A7F8053099B2130A43EA02231FFA42
:1044AC0083F8A7F807300029E7D03B7923BB00F04D
:1044BC0045FD0246E060607FB7F80730C0B9B7F839
:1044CC000510012914D1092B0FD0C82B01D0042BB6
:1044DC00D4D1012562612046657700F011FBFFF70E
:1044EC006BFE00F02FFD0120C8E703236377C5E7BF
:1044FC00581F18BF0120C1E7B8F5806F03D92046BB
:10450C00FFF7A4FEEFE708F1080323F007036E465C
:10451C00ADEB030D04AD20684246294601F0B5F918
:10452C0080454FF000007FD1B7F80730E85400F019
:10453C0005FD3B79E060142B00F0A68048D80F2BCA
:10454C0000F0A28007D8022B48D0062B51D0204671
:10455C00FFF77CFE58E0112BF9D100233B70B7F824
:10456C0007302B449D42C7E903534DD207F10C0091
:10457C00D5F80080FFF736FEFB68B7F807105D1B17
:10458C004D1BC7E905357B68FD61C3F30F236383BE
:10459C00644B984500F0BF8000F28C80A3F57F231C
:1045AC006FF400721344984500F09D8079D8A3F500
:1045BC000033063B984500F09C8003F50033033331
:1045CC0098456BD107F11401384600F0BAFC65E050
:1045DC00292B1BD0372B17D01D2BB8D1637F43B998
:1045EC0001236377204600F08BFAFFF7E5FD00F01E
:1045FC00A9FC0023C821B7F805200091CDE90133AF
:10460C001946204600F0CEF901200DE0A3681BB935
:10461C00402000F011FFA060B7F80780A844454582
:10462C00C7E9055802D30020B54627E729464022A2
:10463C00A06802F01DFAA368002583F83F5007F12B
:10464C001400FFF7CFFD036843451BD2786920B1F6
:10465C00BB69984214D202F0ADF985B2206801F022
:10466C00C7FD2368A2685A631D870023637700F097
:10467C0065FCA0F59C500838C4E903006061C3E7F1
:10468C002846EAE75025E9E77B68B7F80720C3F32B
:10469C000F23638329462046FFF7E2FD0023638343
:1046AC00B2E7214B9845F9D107F11401384600F0D7
:1046BC0048FCF3E71D4B984521D003F19F6303F5AC
:1046CC00003303F5807398451FD003F16E4303F557
:1046DC00302303F586739845E0D107F11401384671
:1046EC0000F02FFCDAE707F11401384600F029FC42
:1046FC00D4E707F11401384600F023FCCEE707F1AC
:10470C001401384600F01DFCC8E707F114013846C7
:10471C0000F017FCC2E707F11401384600F011FC59
:10472C00BCE700BF766673006462670061636F6EFE
:10473C002DE9F04104468CB00D46FFF73DFD637F3B
:10474C00022B00F0A880237F628B0133DBB223772E
:10475C000AB1012516E0022BFBD8206801F067FB9B
:10476C00B8B125B9206801F0E9FC002811DD20461C
:10477C00FFF776FE05460028F4D1206801F038FDDD
:10478C0000F0E0FB237F013B237728460CB0BDE80B
:10479C00F08100F0D3FB0646206801F048FB677FF0
:1047AC00012F054629D120B966612046FFF74EFD41
:1047BC00E8E7E3684FF21862F31A934204D92046F3
:1047CC00FFF744FD0025DDE74AF6C872934203D893
:1047DC002369F31A9342BCD9636941F27072F31ADC
:1047EC009342B6D90023CDE9013300931A46062132
:1047FC00204600F0D7F86661ABE7002FA9D16269BB
:10480C00B21A40B141F270739A42A2D9206801F0F9
:10481C00EFFC6777D6E741F288339A4299D9206842
:10482C0001F0E6FCD4F800C0DCF834E0BCF83880C9
:10483C00BEF1000F0BD02B4642467146604601F08C
:10484C0035FD431E5D425D418DB966619AE7134BA0
:10485C0006930CF120070FCF07AD0FC53B682B70EB
:10486C004246734606A9604601F0EDFBE9E7636832
:10487C00059301261846268302F0F2F80022CDE9B2
:10488C000122059B009032461D21204600F08AF83B
:10489C002369636176E7002577E700BF90710D000F
:1048AC002DE9F04115468CB00446043540F6B8307D
:1048BC000F46984600F040FB0FCD01AE0FC62B689B
:1048CC003370676000F03AFBA0F59C50083801AFDC
:1048DC00C4E9030060610FCF07AE0FC63B683370AD
:1048EC0007AF0FCF25684FF0000CC5F834C0A5F802
:1048FC00388020350FC533682B70664644F24F67FD
:10490C00206801F075FC667700F018FB0546637FA4
:10491C00012B0CD000F012FB401BB84204D8002134
:10492C002046FFF705FFF2E7637F012BE8D10CB0BF
:10493C00BDE8F08100B500218BB0032001F060FED2
:10494C0001F06CF94FF4165101F05CF9A2230093BD
:10495C00AC22EA23A72104A801F0E8F842F2823342
:10496C0004AA0C490C48FFF79BFF04A800F00CFAB2
:10497C00502104A800F015FA04A9084800F080FAA8
:10498C00039001F04BF9039A0549FFF707FC0BB0B4
:10499C005DF804FB1C6C0D00C8E5032024E6032025
:1049AC003D6C0D002DE9F04F83B000AF044600685C
:1049BC003D6B884616469946EB4601F038FA0028BE
:1049CC007FD0B8F11D0F04D84C4B23FA08F3DB074A
:1049DC0002D4637F012B74D146B9668B36B9238B15
:1049EC0001339BB2002B71D02383268BA8F10C03CF
:1049FC00082B16D8D4E90323934238BF134603F18E
:104A0C00420A00F09BFAAAEB0000002860DB0021B0
:104A1C002046FFF78DFE00F091FAAAEB000000286B
:104A2C00F5DAB9F1000F5AD06B1D7A6B002ABA6B0C
:104A3C0008BF002203EB020A0AF1070323F0070365
:104A4C00ADEB030DBB6BC7F804D0EA18C2F3072318
:104A5C0076BA43EA02238DF80080ADF80160ADF818
:104A6C000330B9F1000F3CD0002D3AD02A4649460C
:104A7C000DF1050001F0B0FF681D7B6B3BB1BB6B0A
:104A8C002BB11A467B68796B184401F0A5FF002501
:104A9C0055452AD2AAEB05027B682068B2F5806FD7
:104AAC0028BF4FF48062591901F0ABF9064600207B
:104ABC0000F042FABEB9206801F09AFB667700F06C
:104ACC0041FA0C37DD46BD46BDE8F08F01238BE77C
:104ADC00217F0029A5D12046FFF72AFEA1E7052357
:104AEC00A3E70520C9E73544D2E703D02046FFF7FA
:104AFC00ADFBE6E700F022FA2061E2E7450000207A
:104B0C0000B595B004AB00220193492300930292A7
:104B1C00034B1121FFF746FF15B05DF804FB00BFF6
:104B2C00806C0D00F0B5ADF2244D08AB00240546A9
:104B3C000F46059305A84FF480630E491646CDE940
:104B4C000643FFF7C1FA394605A8FFF75BFB314670
:104B5C0005A8FFF757FB069B013B0093CDE90144E9
:104B6C00059B224614212846FFF71CFF0DF2244D0D
:104B7C00F0BD00BF4D6C0D001FB500211B481C4C37
:104B8C00FFF7D6FD00F05CFA2368C01A632813D92E
:104B9C0000F056FA02A92060164800F03BF9F8B173
:104BAC0001F03CF8BDF90C300093BDF90820BDF9BB
:104BBC000A301149FFF7F2FABDF908200B48012120
:104BCC00FFF7B0FFBDF90A2008480221FFF7AAFF42
:104BDC00BDF90C2005480321FFF7A4FF04B010BD5C
:104BEC0001F01CF8054900F0E2FDE5E7C8E50320FB
:104BFC004CE6032024E60320506C0D00596C0D008C
:104C0C0073B5264D2846002401F03CFB05F11C0031
:104C1C0000F048FF6C632C87214A2249284601F09A
:104C2C00A9FD214BC3E90054C3E90244C3E9044480
:104C3C009C619C831D4C1E4D0821204600F0BCF845
:104C4C001C4B23602978BFF35B8F11F001010BD152
:104C5C0028460191FFF728FA019928B1164800F06F
:104C6C005FFC2846FFF725FA134BE360032323610F
:104C7C00124BA3610025124B094A124925750126D6
:104C8C0025772362A684094801F074FD2946304635
:104C9C0002B0BDE8704000F043BB00BFE8E5032064
:104CAC00B8E5032005410D00C8E5032024E60320E8
:104CBC00BCE50320006D0D00C0E503206C6C0D00FD
:104CCC0080969800D54C0D00704710B528210446ED
:104CDC0001F055FD204610BD10B5044600F1180139
:104CEC00C06800F053FC208A0021BDE8104001F0A0
:104CFC0098BC10B504460121008A01F092FCE068D2
:104D0C00BDE8104000F029BCF8B51E4603685B698D
:104D1C000F46144605469847012E88BF47F04007BA
:104D2C00E86847F0800100F09FFC2644B44206D0AE
:104D3C00E868002100F098FC04F8010BF6E72B68FA
:104D4C0028469B6998470120F8BDF8B51E460368B4
:104D5C005B690F46144605469847012E88BF47F0FD
:104D6C004007E868394600F07FFC2644B44205D081
:104D7C0014F8011BE86800F077FCF7E72B6828466D
:104D8C009B6998470120F8BD002202704270827026
:104D9C00C270027142718271C2710272427282726D
:104DAC007047002241F0070101700271827042705D
:104DBC00C271427270470000024AC0E90021002211
:104DCC0002727047E46C0D0013B5036801AADC682D
:104DDC000123A0479DF8040002B010BD38B505466C
:104DEC000A240F212846FFF7EFFF33284FF001006C
:104DFC0004D000F073FD013CF3D1204638BD10B552
:104E0C000446018AC06800F095FB2046BDE81040BE
:104E1C00FFF7E4BFF7B50C4627210546FFF7D4FF93
:104E2C0000F00800002814BF012600261BD02B68B8
:104E3C006A46DF68282106232846B8479DF80120DA
:104E4C009DF8003043EA022323809DF803209DF84F
:104E5C00023043EA022363809DF805209DF804305C
:104E6C0043EA0223A380304603B0F0BD13B50368B8
:104E7C008DF804201C6901AA0123A04702B010BDC3
:104E8C0070B503689B6804460D469847064630B9D2
:104E9C0000F0C4FE274900F08AFC304670BD2A7829
:104EAC0020212046FFF7E2FF6A7821212046FFF7F8
:104EBC00DDFFAA7822212046FFF7D8FFEA782321CC
:104ECC002046FFF7D3FF2A7924212046FFF7CEFF97
:104EDC006A7925212046FFF7C9FFAB791BB1262142
:104EEC002046FFF771FFAA7A2E212046FFF7BEFF5E
:104EFC00AB785B06D1D5EA7932212046FFF7B6FFB5
:104F0C002A7A33212046FFF7B1FF6368002B0ADBB6
:104F1C006A7A227220463021FFF7A8FF3121204601
:104F2C00FFF752FFB9E70022227230212046FFF72B
:104F3C009DFFB2E7CB6C0D0000F0D0BC00F080B848
:104F4C00704770477047000003065ABF024B53F876
:104F5C0020000020704700BF1C6D0D0003065ABFD7
:104F6C00024B53F820000020704700BF1C6F0D004F
:104F7C0008B5024B1B689B68019308BD68020300CF
:104F8C0008B5024B1B68DB68019308BD680203007F
:104F9C0008B5024B1B685B68019308BD2C0203002B
:104FAC0008B5024B1B689B68019308BD2C020300DB
:104FBC0008B5024B1B68DB68019308BD2C0203008B
:104FCC0008B5024B1B681B69019308BD2C0203003A
:104FDC0008B5024B1B685B69019308BD2C020300EA
:104FEC0008B5024B1B689B6A019308BD2C02030099
:104FFC0008B5024B1B681B6B019308BD2C02030008
:10500C0008B5024B1B689B6F019308BD2C02030073
:10501C0008B5024B1B685B69019308BD6C02030069
:10502C0008B5024B1B685B68019308BD18020300AE
:10503C0008B5024B1B68DB68019308BD180203001E
:10504C0008B5024B1B685B69019308BD180203008D
:10505C0008B5024B1B685B6C019308BD480203004A
:10506C0008B5024B1B689B6C019308BD48020300FA
:10507C0008B5024B1B685B69019308BD6402030011
:10508C0008B5024B1B681B6A019308BD6402030040
:10509C0008B5024B1B689B6A019308BD64020300B0
:1050AC0008B5024B1B681B68019308BD3C0203004A
:1050BC0008B5024B1B68DB68019308BD3C0203007A
:1050CC0008B5024B1B681B69019308BD3C02030029
:1050DC0008B5024B1B685B69019308BD3C020300D9
:1050EC0008B5024B1B689B69019308BD3C02030089
:1050FC0008B5024B1B68DB69019308BD3C02030039
:10510C0008B5024B1B681B6A019308BD3C020300E7
:10511C0008B5024B1B689B6A019308BD3C02030057
:10512C0008B5024B1B681B6A019308BD28020300DB
:10513C0008B5024B1B685B6A019308BD280203008B
:10514C0008B5024B1B689B6A019308BD280203003B
:10515C0008B5024B1B68DB6A019308BD28020300EB
:10516C0008B5024B1B681B6B019308BD280203009A
:10517C0008B5024B1B685B6B019308BD280203004A
:10518C0008B5024B1B681B6C019308BD2802030079
:10519C0008B5024B1B689B69019308BD38020300DC
:1051AC0008B5024B1B68DB69019308BD380203008C
:1051BC0008B5024B1B681B6A019308BD380203003B
:1051CC0008B5024B1B689B6A019308BD38020300AB
:1051DC0008B5024B1B681B6B019308BD380203001A
:1051EC0008B5024B1B689B6B019308BD380203008A
:1051FC0008B5024B1B681B68019308BD3002030005
:10520C0008B5024B1B685B69019308BD30020300B3
:10521C0008B5024B1B68DB69019308BD3002030023
:10522C0008B5024B1B681B6A019308BD30020300D2
:10523C0008B5024B1B685B6A019308BD3002030082
:10524C0008B5024B1B68DB6B019308BD30020300F1
:10525C0008B5024B1B681B6C019308BD30020300A0
:10526C0008B5024B1B685B6C019308BD3002030050
:10527C0008B5024B1B681B68019308BD4C02030068
:10528C0008B5024B1B685B68019308BD4C02030018
:10529C0008B5024B1B681B69019308BD4C02030047
:1052AC0008B5024B1B685B69019308BD4C020300F7
:1052BC0008B5024B1B689B69019308BD4C020300A7
:1052CC0008B5024B1B68DB69019308BD4C02030057
:1052DC0008B5024B1B681B6A019308BD4C02030006
:1052EC0008B5024B1B685B6B019308BD60020300A1
:1052FC0008B5024B1B681B6D019308BD60020300CF
:10530C0008B5024B1B685B68019308BD20020300C3
:10531C0008B5024B1B685B69019308BD20020300B2
:10532C0008B5024B1B68DB6A019308BD2002030021
:10533C0008B5034B1B68D3F88830019308BD0000F7
:10534C002002030008B5034B1B68D3F8943001937B
:10535C0008BD00002002030008B5024B1B685B6807
:10536C00019308BD4002030008B5024B1B689B6803
:10537C00019308BD4002030008B5024B1B68DB68B3
:10538C00019308BD4002030008B5024B1B681B6962
:10539C00019308BD4002030008B5024B1B685B6912
:1053AC00019308BD4002030008B5024B1B689B69C2
:1053BC00019308BD4002030008B5024B1B68DB6972
:1053CC00019308BD4002030008B5024B1B681B6A21
:1053DC00019308BD4002030008B5024B1B681B6B10
:1053EC00019308BD4002030008B5024B1B685B6BC0
:1053FC00019308BD4002030008B5024B1B681B6CEF
:10540C00019308BD4002030008B5024B1B685B6C9E
:10541C00019308BD4002030008B5024B1B689B6852
:10542C00019308BD4402030008B5024B1B68DB6BFB
:10543C00019308BD4402030008B5024B1B681B68AE
:10544C00019308BD1C02030008B5024B1B685B6886
:10545C00019308BD1C02030008B5024B1B68DB69F5
:10546C00019308BD1C02030008B5024B1B685B6A64
:10547C00019308BD1C02030008B5024B1B68DB6BD3
:10548C00019308BD1C02030008B5024B1B685B6C42
:10549C00019308BD1C020300002240681146FFF76F
:1054AC0093BF002240681146FFF79EBF4068002260
:1054BC00FFF792BF4068002281F00101FFF77CBF2B
:1054CC00002340681A461946FFF76EBF0023406858
:1054DC001A461946FFF760BF002240681146FFF7D5
:1054EC0053BF002240681146FFF73EBF40680022C0
:1054FC000221FFF741BF002340681A46FFF72CBF7B
:10550C00024B03225A60024A1A60704750E603208D
:10551C0024710D000021FFF79BBE0021FFF7A0BEF8
:10552C0010B5044608462170FFF772FE0023636035
:10553C00204610BD13B5044600780191FFF7EAFF31
:10554C00019940B92078FFF753FE207802B0BDE8EE
:10555C001040FFF7E2BF02B010BD0078FFF7DDBFCF
:10556C00400830B51860002418688842E5B206D9A6
:10557C000134082C02D040081860F5E70725024BCF
:10558C005B5D137030BD00BF58710D002DE9F04309
:10559C0006468FB000780C46FFF7BCFF00281BDBDB
:1055AC0035781422002109A801F024FA0B230022DB
:1055BC0009A92846ADF82430FFF73AFE9DF82D30A6
:1055CC0013B19DF82C5055B10027B946B8460125AA
:1055DC0023795DB1C3B100200FB0BDE8F083DDF8D5
:1055EC0030809DF834909DF83570F1E7002B35D163
:1055FC00A368434508D18DF820908DF82170BDF833
:10560C002020A3899A42E6D00023A1688DF80F30A0
:10561C000A9804AB0DF10F02FFF7A2FF217985B9AF
:10562C0089B9A36843450ED38DF820908DF821706D
:10563C00BDF82020A3899A4205D1049B434502D191
:10564C00C9E70029F9D100230193637B00939DF8EE
:10565C000F20237B3078FFF7F3FDBCE7CDE9005535
:10566C002B462A460121F5E708B50078FFF7C8FD5F
:10567C00C0B208BD10B50446006818B1FFF7E4FECF
:10568C000023236010BD10B50446FFF7F3FF20463E
:10569C0010BD000010B5094B094C022200201A6005
:1056AC00084B2060A080A071A360FFF729FE204664
:1056BC00054A0649BDE8104001F05CB864E60320D9
:1056CC0058E603200000FFFFB8E5032093560D00B9
:1056DC0070B586B0064601AD684600F033FA0FCDC2
:1056EC00341D0FC42B682370304606B070BD10B546
:1056FC000446006808B1FFF7B3FC204610BD10B596
:10570C008368044613B1032201469847204610BD16
:10571C0010B5064C002320462360FFF799FC204669
:10572C00034A0449BDE8104001F024B868E60320A0
:10573C00B8E50320FB560D00F8B506460D468F184C
:10574C000024BD420CD0336815F8011B9B68304611
:10575C009847031E01DB1C44F3E7002C08BF1C46D2
:10576C002046F8BD13B50446084659B1019101F025
:10577C0077F923680199DB680246204602B0BDE840
:10578C001040184702B010BD08B5FFF7EBFF08BD7D
:10579C0003689B68184738B50D210546FFF7F8FFDD
:1057AC000A2104462846FFF7F3FF204438BD38B5DC
:1057BC000546FFF7D7FF04462846FFF7ECFF2044C9
:1057CC0038BD30B58BB000238DF82430012A98BF3A
:1057DC000A2209AC0D46B1FBF2F101FB125303F0A6
:1057EC00FF03092B94BF30333733DBB2AA4204F8E2
:1057FC00013DEFD92146FFF7B5FF0BB030BD2DE9C8
:10580C00F04186B000AF05460E46381D14211446F3
:10581C003B60FFF729FE13280ED8391D2846FFF7E9
:10582C00A1FF04461EB12846FFF7B5FF04442046ED
:10583C001837BD46BDE8F08100F1080323F00703DB
:10584C00E846ADEB030D2246411C3B686846FFF76A
:10585C000BFE69462846FFF785FF0446C546E1E77F
:10586C0010B50446FFF7ECFBE060236820465B694B
:10587C009847002808DAFFF7E3FBE368C01AA3682F
:10588C009842F2D34FF0FF3010BDF8B506460D46E6
:10589C0017460024BC4207D03046FFF7E1FF031E39
:1058AC0002DB2B550134F5E72046F8BD0023406898
:1058BC001A461946FFF770BD014B024A1A60704731
:1058CC006CE6032068710D00024B1A68024B1A60DB
:1058DC00704700BF50E5032070E603200021FFF75E
:1058EC0017BD10B50446FFF70AFF204610BD000097
:1058FC000348044A04490023836000F03BBF00BF07
:10590C0074E60320B8E50320EF580D00014B186036
:10591C00704700BF54E5032008B50B4B43B100F0B2
:10592C007DF903681B699847002801DDAFF30080FF
:10593C00064B43B100F0F0F903681B699847002847
:10594C0001DDAFF3008008BD000000000000000086
:10595C0008B5FFF7E1FFFFF773FB014B186008BDBB
:10596C00D4E703200248034A0349121A01F034B861
:10597C0000F4032004F4032040750D0007B5002348
:10598C0000931A466FF07701FFF7DCFC03B05DF86B
:10599C0004FB000007B543880A2B08D0502B0BD111
:1059AC00094B1B684BB103B05DF804EB1847FFF7CC
:1059BC00E5FF03B05DF804FB002300931A466FF07B
:1059CC007701FFF7BFFCF4E788E6032038B5124CEB
:1059DC001248134D0021FFF757FD2368AB42114BC2
:1059EC000CBF012200221A7002D0FFF7BBFF25600A
:1059FC00FFF716FB044601F005F80B4B13B12046DC
:105A0C00AFF3008000210848FFF70EFDBDE83840D9
:105A1C0006480021FFF78CBC00F4032019590D0037
:105A2C001E1C279A84E6032000000000A1590D00DB
:105A3C00704710B51821044600F0A1FE204610BD99
:105A4C00F0B5037D062B8DB00E4600F104074FF028
:105A5C00000412D000F1080515F8011D0A22304689
:105A6C00FFF7AFFEAF42044419D0002CF4D02E2126
:105A7C003046FFF78DFE0444EEE72F236A46394685
:105A8C000A208DF80040FFF7F3FA684600F0E8FFB3
:105A9C0033680246DB686946304698470446204620
:105AAC000DB0F0BD10B5054B0446112240F8043B77
:105ABC00002100F09FFF204610BD00BF90710D002B
:105ACC000346074A10B543F8042B01F1100251F8B4
:105ADC00044B43F8044B9142F9D10A781A7010BD6B
:105AEC0090710D00037D042B04D14068003818BF61
:105AFC0001207047062B07D143683BB983682BB94B
:105B0C00C3681BB90069F1E700207047012070479A
:105B1C0010B59DF8084044EA032343EA024242EAE6
:105B2C00016104234160037510BD000037B5044DBD
:105B3C0005609DF818500095FFF7EAFF03B030BDE3
:105B4C0090710D0013B5054B0360CB7800938B78E7
:105B5C004A780978FFF7DCFF02B010BD90710D0098
:105B6C0041747047704708B50021007CFFF7A0FB1B
:105B7C0040EAE07008BD08B50121007CFFF798FBF6
:105B8C0040EAE07008BD08B5007CFFF789FB20EA0D
:105B9C00E07008BD08B5007CFFF77AFB20EAE070E6
:105BAC0008BD13B50446007C0191FFF779FB002872
:105BBC00019901DC607C20B1207CFFF781FB20EA9D
:105BCC00E07002B010BD007CFFF782BB10B5142151
:105BDC00044600F0D4FD204610BD000010B54FF473
:105BEC007A73044608460021C4E90113044B236070
:105BFC000123207463741146FFF73AFB204610BD55
:105C0C00A4710D00007C0022FFF73ABB10B51422E2
:105C1C000446002100F0EEFE204610BD10B5104CDD
:105C2C0088B003A8FFF7F2FF2178BFF35B8F11F068
:105C3C00010111D120460191FEF736FA019958B1B4
:105C4C0003AA0848FFF7CAFF2046FEF732FA064AB5
:105C5C000649044800F08EFD024808B010BD00BF94
:105C6C008CE6032090E60320B8E50320715B0D0061
:105C7C0070474174704708B5007CFFF749FA20EA79
:105C8C00E07008BD08B5007CFFF71AFA20EAE07056
:105C9C0008BD08B5007CFFF723FA40EAE07008BDA8
:105CAC0008B5007CFFF714FA40EAE07008BD007CF0
:105CBC00FFF71EBA37B5457C04462DB1207C03B0E6
:105CCC00BDE83040FFF7F4B9007C0191FFF720FAF2
:105CDC0000280199F2DC284603B030BD10B5142120
:105CEC00044600F04CFD204610BD000010B54FF0EE
:105CFC00000C0446084611464FF47A72C4E901C2FE
:105D0C00044A22600122207462741A46FFF7C8F913
:105D1C00204610BDD4710D0013B50E4C2178BFF385
:105D2C005B8F11F0010112D120460191FEF7BCF9F5
:105D3C00019960B1084A094B0948FFF7D7FF204683
:105D4C00FEF7B7F9074A0849054800F013FD044867
:105D5C0002B010BDA4E60320A8E603202CE7032024
:105D6C00B0E70320B8E503207D5C0D007047F8B563
:105D7C00064615460C468F18BC4206D0336814F8FC
:105D8C00011B9B6830469847F6E72846F8BD007C17
:105D9C000022FFF7C5B9007C0021FFF7C9B9007CD0
:105DAC000021FFF7CDB9007C0021FFF7D1B9007CB1
:105DBC000021FFF7D5B910B51421044600F0DFFC23
:105DCC00204610BD10B54FF47A73044608460021E6
:105DDC00C4E90113034B236020741146FFF7D0F97B
:105DEC00204610BD04720D0013B503688DF8071022
:105DFC00DC6B01224FF0FF330DF10701A04702B01D
:105E0C0010BD10B40368DC6B4FF0FF33A4465DF893
:105E1C00044B604713B5134602688DF80710D46B1A
:105E2C000DF107010122A04702B010BD704738B533
:105E3C0043691A68002A054610DAB3F88620B3F8CD
:105E4C0084309A420AD103681B699847044628B9E2
:105E5C002B682846DB6A9847204638BD0120FCE7B2
:105E6C0043691868C043C00F70477047064B99428E
:105E7C0010B500F10C0405D0084600F085FC002894
:105E8C0008BF0024204610BD60710D0010B5AC2178
:105E9C00044600F074FC204610BDFEF7F8B82DE95E
:105EAC00F0414FF0000886B01D46C0F8048004464F
:105EBC000E4617464146102202A800F09BFD6B1CB3
:105ECC0009D04FF47A70B5FBF0F3CDE9023800FB42
:105EDC00135358430490606910230093006802AB7D
:105EEC0041F2050240F6FF71FFF752F9002807DA7C
:105EFC00FFF7C2FA03686360002006B0BDE8F081CA
:105F0C006069002300683A463146FFF761F9031EC9
:105F1C00EEDB1846F1E7000038B584690A4B0360E4
:105F2C0005467CB16368013B63605BB9236820461E
:105F3C009B689847A368013BA3601BB92368204664
:105F4C00DB689847284638BD60720D0010B50446D2
:105F5C00FFF7E2FF20461C2100F011FC204610BD8B
:105F6C0070B54D69054B04468C3544F8043B064628
:105F7C000FCD0FC42B682370304670BD90710D008F
:105F8C0010B54369B3F88620B3F884309A420446BE
:105F9C0005D06369B3F884201344187910BD0368E5
:105FAC001B6998470028F4D14FF0FF30F6E710B585
:105FBC004369B3F88620B3F884309A42044608D07B
:105FCC006369B3F88420511CA3F884101344187926
:105FDC0010BD03681B6998470028F1D14FF0FF30C2
:105FEC00F6E7F8B543691746B3F88620B3F8843062
:105FFC009A4205460E4616D06969B1F88430B1F85C
:10600C008640E41ABC4228BF3C460433224619445D
:10601C00304600F0E1FC6A69B2F884302344A2F8FF
:10602C0084302046F8BD03681B6998470028E3D1EB
:10603C004FF0FF34F5E742690023A2F8843042693F
:10604C00A2F8863070472DE9F0411F4603680C46D4
:10605C00DB6A8AB0054616469847237DD5F814802E
:10606C00042B0CBF02200A2006220121FFF7B8F8EE
:10607C00C8F800006B691B68002B08DA2B682846EF
:10608C00DB6A0024984720460AB0BDE8F081284618
:10609C00FFF7D1FFB7B1002303A9F8B20393ADF812
:1060AC001030FEF7B5FF0028E8D16869062300938D
:1060BC00006803AB41F20B0240F6FF71FFF768F882
:1060CC000028DBD11C22002103A800F093FC237DC7
:1060DC00042B1DD14FF407733046ADF80C30FEF78E
:1060EC00D7FFADF80E006068FEF7CAFF04906B692D
:1060FC001C22186803A9FFF75BF80028BED10434F2
:10610C000FCC6D698C350FC523682B700124BAE751
:10611C0040F61C233046ADF80C30FEF7B9FF05AE47
:10612C00ADF80E00231D04F11407186859683246A7
:10613C0003C20833BB421646F7D1D8E730B54269E3
:10614C00B2F886308BB004462BB1B2F884209A4258
:10615C0001D1FFF770FF61690868002818DBB1F8FE
:10616C0086507F2D14D804310823C5F180022944B0
:10617C00FFF726F8002813DD6369B3F886200AB907
:10618C00A3F884206369B3F886201044A3F8860032
:10619C006369B3F88600B3F88430C01A0BB030BD15
:1061AC00FFF76AF903680B2BF2D0FFF765F9036868
:1061BC000B2BEDD020230025CDE90235FFF75CF940
:1061CC0003680193084B0949009302AA2B4632201D
:1061DC00FFF78EF863691868FEF7E2FF63694FF00A
:1061EC00FF321A60D4E700BF2B720D0024720D0031
:1061FC0010B5436904461868002801DBFEF7D0FF90
:10620C0063694FF0FF321A606069112200218C30F3
:10621C0000F0F0FB2046BDE81040FFF70CBF10B5B6
:10622C00002304460160C0F884308830FFF73AFC44
:10623C00204610BD73B500234FF47A72C0E90132C9
:10624C000E4A0361026043610446AC200191FDF7E4
:10625C001AFF051E05F10C0608D00123C5E9013310
:10626C00074B01992B603046FFF7D9FF2046C4E954
:10627C000565FFF7E0FE02B070BD00BF60720D0057
:10628C0044720D0010B54FF0FF310446FFF7D2FFFA
:10629C00204610BD10B504460068002801DBFEF74F
:1062AC007FFF204610BD0C30FFF7F4BF2DE9F04303
:1062BC009846036893B00D460024DB6A06461746E1
:1062CC00984728466B46224621460094FEF758FE16
:1062DC000546002863D1009B002B4BD05B69002B3B
:1062EC0048D006A8FFF7DEFB009B5C696378022BA5
:1062FC0004D1211D06A8FFF7EBF926E00A2B24D1C7
:10630C001122294601A800F075FBA368002B38D098
:10631C0004F108030DF1040C18341868596862462E
:10632C0003C20833A3429446F7D1062301A90CA853
:10633C008DF81430FFF7C4FB0DF1340CBCE80F00E2
:10634C0007AC0FC4DCF80030237006A8FFF7CAFBBB
:10635C0080B1336807ADD3F82090124B0C930FCD5E
:10636C000DAC0FC42B6823703A4643460CA930463B
:10637C00C84705460098FEF7FBFD284613B0BDE85C
:10638C00F083E368002BC3D14FF6FF70D4F8109064
:10639C00FEF776FE8145BBD104F11401AAE7254630
:1063AC00E8E700BF90710D00002240681146FEF72F
:1063BC00EBBF002240681146FFF706B80022406888
:1063CC001146FFF711B840680022FFF705B8406886
:1063DC00002281F00101FEF7EFBF002340681A464E
:1063EC001946FEF7E1BF002240681146FEF7BCBF1C
:1063FC00406800220221FEF7BFBF002340681A4606
:10640C00FEF7AABF024B04225A60024A1A60704778
:10641C00C4E70320AC720D00002340681A46FEF757
:10642C009BBF406800220221FEF7A6BF00224068F5
:10643C001146FEF799BF002240681146FEF7A4BF33
:10644C00002340681A461946FEF7A6BF0023406891
:10645C001A461946FEF7A8BF40680021FEF7CCBFCC
:10646C0040680021FEF7D0BF4068002281F0010196
:10647C00FEF7A2BF40680022FEF7AEBF00224068C4
:10648C001146FEF7B1BF002240681146FEF79CBFD3
:10649C002DE9F043002495B016460D460746FFF74C
:1064AC0001FB214618220EA8009400F0A3FA402309
:1064BC00CDE90C3421466B460CAA3046FEF760FD44
:1064CC00044600284CD1024601216868FEF75CFFA7
:1064DC000221804622466868FEF756FF009E8146E0
:1064EC002146002E3CD000293AD17368022B03D0F0
:1064FC000A2B11D0F669F4E7B8F1000F0AD07169D4
:10650C0006A8043107ADFFF71DFB0FCD3C1D0FC4D2
:10651C002B6823704146EDE7B9F1000F01D14946D4
:10652C00E8E77469102201A800F064FA06238DF8DC
:10653C00143001AD04F108031834186859682A4660
:10654C0003C20833A3421546F7D101A906A807AD2B
:10655C00FFF7B6FA0FCD3C1D0FC42B682370DEE796
:10656C000098FEF705FD384615B0BDE8F083000035
:10657C00024B034A1A6000225A607047CCE7032092
:10658C00E8720D00232813B502D9002002B010BD0B
:10659C00A0F10B03022B1AD8174C2178BFF35B8F99
:1065AC0011F001010BD120460191FDF77DFD019900
:1065BC0028B11248FEF7B4FF2046FDF77AFD0F4BC9
:1065CC001878FEF72DFE0028DFD10120DEE7012828
:1065DC0009D800F0A7F80021007CFEF7C9FD80F077
:1065EC000100C0B2D2E709380128EED8FFF794FBBE
:1065FC00007CFEF785FDF2E7BCE50320C0E5032037
:10660C00232838B504460D460AD8FF2908D0FFF7D1
:10661C00B9FF28B129462046BDE83840FEF7C0BC7A
:10662C0038BD38B504460D46FEF7C2FCFF2810D025
:10663C00062804D84D2323FA00F0C30709D42046BA
:10664C00FFF7A0FF28B129462046BDE83840FEF7E9
:10665C00B7BC38BD10B50446FEF7AAFC031FDBB26D
:10666C00012B08D92046FFF78DFF20B12046BDE84D
:10667C001040FEF7ADBC002010BD0D2810B504462F
:10668C009CBF0E34A4B22046FFF77CFF50B103210F
:10669C002046FEF77DFC032804D12046BDE81040BF
:1066AC00FEF7A6BC002010BD38B504460D46FFF71A
:1066BC0069FFF0B104212046FEF76AFC042805D1DD
:1066CC00A9B22046BDE83840FEF78ABC022120461C
:1066DC00FEF75EFC02280CD12046FEF769FC01286F
:1066EC0001D0042805D129462046BDE83840FEF7E4
:1066FC0087BC38BD38B500232025438014230446BD
:10670C000380856005610649284600F03AF8044983
:10671C006060284600F035F8E060204638BD00BFC8
:10672C001C730D0030B50F4D2978BFF35B8F11F042
:10673C00010487B013D12846FDF7B6FC78B101A847
:10674C00FFF7D8FF01AA21460748FFF73BFB284675
:10675C00FDF7AFFC054A0649034800F00BF8024868
:10676C0007B030BDD8E70320DCE70320B8E50320F1
:10677C00795D0D000B460146184600F01FB9FDF778
:10678C0086BCFDF782BC0000014900F0F9B800BFDF
:10679C0038730D007FB500241023CDE90234036853
:1067AC0000949E698DF8044015466B461268B047FC
:1067BC009DF8043003F00603062B03BF009B2B60EF
:1067CC000120204604B070BD0098904214BF0120F7
:1067DC000620704710B5034B0360044600F0CDF85B
:1067EC00204610BD78730D0010B50446FFF7F2FF7C
:1067FC0020460821FFF7C3FF204610BD2DE9F041CC
:10680C001F46DDE90834DDF8188098450646154624
:10681C0007D1079900F0B4F818B165710020BDE8F4
:10682C00F0813946304600F0ABF80028F6D0012351
:10683C00C4F800802571A371F0E738B515461C46E5
:10684C0000F09EF820B10823E36006232560237135
:10685C0038BD73B505460C4601921E4600F090F803
:10686C0050B9032E08D82368019A5B692946204643
:10687C0002B0BDE87040184702B070BD10B5034BB4
:10688C0003600446FFF7A6FF204610BDD8730D0029
:10689C0010B50446FFF7F2FF20460C21FFF76FFFFF
:1068AC00204610BDF7B5089F974205460E46144684
:1068BC000AD0A86802680897156A31462246AC4689
:1068CC0003B0BDE8F04060471946019300F058F85A
:1068DC00019B0028EDD0062003B0F0BD2DE9F14F4F
:1068EC000D461946DDE90A4BDDE90CA68146174633
:1068FC00984600F045F890B1002D3460377109DBF3
:10690C0061198A450CBF06210121B171002001B02B
:10691C00BDE8F08F0235F9D10123B371F6E7544588
:10692C0006D15946484600F02BF808B17771EDE7CF
:10693C00D9F808000368CDE90CA6CDE90A4BDC694F
:10694C003A4643462946A44601B0BDE8F04F60479D
:10695C002DE9F04107460C4615461E46FFF76DFF24
:10696C0048B9B86803689F692A4633462146BC4635
:10697C00BDE8F0416047BDE8F081704700207047EA
:10698C00814208B50ED0406803782A2B0CD0496898
:10699C000B782A2B08BF013100F058F8B0FA80F0C0
:1069AC00400908BD0120FCE70020FAE70A2200217B
:1069BC0000F0ECB80A22002100F0E8B810B5054C44
:1069CC0013462CB10A4601460220AFF3008010BDDD
:1069DC002046FCE7000000000A44914200F1FF331E
:1069EC0000D1704710B511F8014B03F8014F9142DB
:1069FC00F9D110BD02440346934200D1704703F80D
:106A0C00011BF9E738B50D4B1D68AB6B04467BB920
:106A1C001820FEF711FD0A4A0A4BA863C0E90023AF
:106A2C00094B83600B23838101220023C0E90423DB
:106A3C00AB6B00221C615A6138BD00BF54E50320CA
:106A4C000E33CDAB34126DE6ECDE050010F8012BE5
:106A5C0011F8013B012A28BF9A42F7D0D01A70478F
:106A6C00034613F8012B002AFBD1181A0138704782
:106A7C0010B50139034632B111F8014F03F8014B3F
:106A8C00013A002CF7D11A440021934200D110BDD9
:106A9C0003F8011BF9E700002DE9F0473A4E864652
:106AAC008C4660461CF8014BA55D15F00805F8D125
:106ABC002D2C33D19CF800404FF0010800F1020C52
:106ACC00002B5CD0102B0CD1302C0AD19CF8000080
:106ADC0000F0DF0058284DD19CF8014010230CF138
:106AEC00020C08F10047013F0026B7FBF3F93046D2
:106AFC0003FB197AA4F13005092D18D82C46A342B2
:106B0C0024DD751C07D081451DD301D1A2451ADBAC
:106B1C0000FB034001261CF8014BEBE72B2C08BFB4
:106B2C009CF80040A84608BF00F1020CC8E7A4F18D
:106B3C004105192D01D8373CE1E7A4F16105192D68
:106B4C0004D8573CDBE74FF0FF36E4E7731C06D163
:106B5C002223CEF80030384642B9BDE8F087B8F1B0
:106B6C00000F00D04042002AF7D00EB10CF1FF31DB
:106B7C001160F2E73024002BB3D10823B1E7302C9D
:106B8C00A4D00A23ADE700BF12740D0013460A46C9
:106B9C00014602480068FFF77FBF00BF54E50320A1
:106BAC001D400D0059400D0081400D0085400D0029
:106BBC000000000064656661756C7420004D5342E2
:106BCC00004C5342003C53504953657474696E67D2
:106BDC00732064656661756C743E003C5350495378
:106BEC00657474696E677320257325752025732071
:106BFC004D4F444525753E00256900256C6900699B
:106C0C006E006F75740070776D00647700617700AB
:106C1C00784548794A315A79677749374F584763ED
:106C2C00392D654C67334B574D61523478376C3581
:106C3C00007365747570537563636573733D256478
:106C4C000076770025642C25642C2564006E6F205B
:106C5C0073616D706C6500000000000000000000A6
:106C6C0055410D00C5400D00C7400D00626C6E6BA8
:106C7C00696E660076657200312E302E3000682DFC
:106C8C006265617400343500627566662D696E004C
:106C9C003130323400646576005061727469636C13
:106CAC0065006275696C64004A756C20203720326F
:106CBC003032312031313A33383A35370000006404
:106CCC006576696365206E6F7420666F756E6400FF
:106CDC0000000000000000000000000000000000A8
:106CEC00E94D0D00A1400D00A1400D000000000079
:106CFC0000000000D54C0D00D74C0D000B4E0D00C4
:106D0C00154D0D00574D0D00E54C0D00FF4C0D00C1
:106D1C004D4F0D004D4F0D004D4F0D004D4F0D00C3
:106D2C004D4F0D004D4F0D004D4F0D004D4F0D00B3
:106D3C004D4F0D004D4F0D004D4F0D004D4F0D00A3
:106D4C004D4F0D004D4F0D004D4F0D004D4F0D0093
:10711C00000000000000000003550D00F9540D00A4
:10712C00EF540D00E5540D00D9540D00CD540D0055
:10713C0065640D006D640D00C1540D00B9540D0053
:10714C00AF540D00A5540D009D640D0000081018DF
:10715C002028303800000000000000006170700032
:10716C0025592D256D2D25645425483A254D3A2554
:10717C0053257A0061736374696D6500000000002B
:10718C00000000004D5A0D003D5A0D003F5A0D00F5
:10719C000000000000000000715B0D00D95B0D00C9
:1071AC00AF5B0D0045570D00A15B0D00735B0D002F
:1071BC00835B0D00D35B0D00935B0D006D5B0D00CD
:1071CC0000000000000000007D5C0D00E95C0D007B
:1071DC00C15C0D0045570D00915C0D00AD5C0D00C0
:1071EC009F5C0D00BB5C0D007F5C0D00835C0D0093
:1071FC000000000000000000795D0D00C35D0D0073
:10720C009B5D0D007B5D0D00A35D0D00AB5D0D0066
:10721C00B35D0D00BB5D0D00776972696E6700721E
:10722C00656376206572726F72203D2025640000C4
:10723C000000000000000000775E0D00995E0D005C
:10724C00B3620D00A75E0D00795E0D00000000001A
:10725C0000000000255F0D00595F0D00F55D0D006D
:10726C000F5E0D0049610D00BB5F0D008D5F0D00C1
:10727C00395E0D0053600D00B9620D00EF5F0D001B
:10728C00FD610D003B5E0D006D5E0D00215E0D007D
:10729C00AB5E0D006D5F0D000000000000000000F3
:1072AC0007640D00FD630D00F3630D00B5630D0065
:1072BC00B9580D00E7630D0065640D006D640D0099
:1072CC00DB630D00D3630D00C9630D00BF630D00BC
:1072DC009D640D00000000000000000025640D00FE
:1072EC002F640D0039640D0043640D004D640D00D6
:1072FC0059640D0065640D006D640D0075640D001E
:10730C0081640D0089640D0093640D009D640D0073
:10731C0000537431395F53705F6D616B655F7368D7
:10732C00617265645F7461670000000078730D0022
:10733C001D730D00D8730D004C730D00FC730D0004
:10734C004E31305F5F637878616269763131375FD7
:10735C005F636C6173735F747970655F696E666F80
:10736C00450000000000000040730D00E1670D00B7
:10737C00F5670D0089690D0089690D005F680D00C6
:10738C00A1670D0047680D0009680D00D5670D0059
:10739C00D8730D00A8730D0040730D004E31305F93
:1073AC005F637878616269763132305F5F73695FF1
:1073BC00636C6173735F747970655F696E666F453A
:1073CC0000000000000000009C730D0089680D0097
:1073DC009D680D0089690D0089690D005F680D00BD
:1073EC00A1670D005D690D00E9680D00B1680D0025
:1073FC0078730D0004740D00537439747970655FE3
:10740C00696E666F0000202020202020202020287C
:10741C002828282820202020202020202020202040
:10742C002020202020208810101010101010101078
:10743C0010101010101004040404040404040404B8
:10744C001010101010101041414141414101010137
:10745C000101010101010101010101010101010110
:10746C00011010101010104242424242420202021D
:10747C0002020202020202020202020202020202E0
:10748C00021010101020000000000000000000008E
:10749C0000000000000000000000000000000000E0
:1074AC0000000000000000000000000000000000D0
:1074BC0000000000000000000000000000000000C0
:1074CC0000000000000000000000000000000000B0
:1074DC0000000000000000000000000000000000A0
:1074EC000000000000000000000000000000000090
:1074FC000000000000000000000000000000000080
:10750C0000000000000000000D4C0D000D550D009A
:10751C00A1560D001D570D00C5580D00D5580D0076
:10752C00FD580D0011640D007D650D00000000007C
:04753C00000000004B
:047540000000000047
:1075440080710D0058E503200000000000000000D9
:107554000000000000000000000000000000000027
:107564000000000000000000000000000000000017
:107574000000000000000000000000000000000007
:1075840000000000000000000000000000000000F7
:1075940000000000000000000000000000000000E7
:0875A4000000000000000000DF
:1075AC00FFFFFFFF00000102030405060708090A9C
:1075BC000B0C0D0E0F101112131415161718191A97
:0875CC001B1C1D1E1F202800DE
:0475D400785634129F
:04000003D000401CCD
:00000001FF
